:100000000C947B010C942B0E0C94000E0C94D50DCB
:100010000C94AA0D0C947F0D0C94540D0C94290D86
:100020000C94FE0C0C94AC010C94AC010C94AC013F
:100030000C94AC010C94560E0C94AC010C94AC01D5
:100040000C94AC010C94530F0C94AC010C94AC01C7
:100050000C94AC010C94AC010C94AC010C94B40C59
:100060000C94AC010C941D0F0C94F30E0C94AC0189
:100070000C94AC010C94AC010C94AC010C94AC014C
:100080000C94AC010C94AC010C94AC010C94AC013C
:100090000C94AC010C94AC010C94AC010C94900B3E
:1000A0000C94AC010C94AC010C94AC010C94AC011C
:1000B0000C94AC010C94AC010C94AC010C94AC010C
:1000C0000C94AC010C94AC010C94AC010C94AC01FC
:1000D0000C94AC010C94AC010C94AC010C94AC01EC
:1000E0000C94AC010C942D090C94CD080C948B024B
:1000F0000C9434070C94AE010C94EA070C940B0298
:100100000C94F8010C94CA020C94F8080C94A00208
:100110000C9457070C9400070C94B8020C941E0919
:100120000C94BC080C9465070C946B090C94BC02ED
:100130000C9437090C94CB140C9497020C94AA02DB
:100140000C9443070C94E9010C94DC080C94AE0267
:100150000C94C0020C94D2080C948F020C943107BA
:100160000C94FC060C949D070C940A090C9402074D
:100170000C94B2020C9493020C94C0010C943802BB
:100180000C9441090C949A020C9404070C940009F5
:100190000C94440B0C94F0080C94A4020C94FB0FE8
:1001A0000C9485020C945F090C94C5020C94E6082B
:1001B0000C9414090C94E8010C94C6020C94550993
:1001C0000C94BF010C944B090C9401070C94030789
:1001D000000020002300260029002C002F00320000
:1001E00000010000030106010901020000210024B2
:1001F0000027002A002D0030003300010100000418
:100200000107010A0100002200250028002B002E12
:10021000003100340002010000050108010B010556
:10022000050505070508080808020202020A0A086F
:100230000804040404010101010101010103030395
:100240000303030303040707070C0C0C0C0C0C0C32
:100250000C0202020206060606060606060B0B0B39
:100260000B0B0B0B0B010210202008081020401074
:10027000204080020102010804020101020408106A
:100280002040808040201008040201800402018088
:1002900040201008040201080402010102040810B1
:1002A000204080010204081020408000000A0B0258
:1002B000090C0D0E080703040100000000000000F7
:1002C000000000000000000000000000000000002E
:1002D00000000000000000121110000000000000EB
:1002E000000000000000000000000000000000000E
:1002F0000000FB0FCB1411241FBECFEFD1E2DEBFF5
:10030000CDBF00E00CBF12E0A0E0B2E0EEE9FEE2FB
:1003100000E00BBF02C007900D92A434B107D9F7DB
:1003200024E0A4E4B2E001C01D92AD3BB207E1F7C6
:1003300011E0CAE7D1E000E006C021970109802F53
:10034000FE010E94D515C937D10780E00807A9F73B
:100350000E946C110C943D170C9400008091BD021A
:100360009091BE02891B990B0895FC0120812EBD3E
:100370000DB407FEFDCF2EB5FC012083089508952E
:10038000089520919602260F3327331F213231051D
:10039000ECF420910903FC0190E080E0243069F046
:1003A00082E00895A09196022191AC014A585D4FD8
:1003B000A40FB52FB11D2C930196861798F3809149
:1003C0009602680F6093960280E0089581E0089598
:1003D0000895E091BE028091BD02E81730F4F0E08C
:1003E000E154FD4F808190E008958FEF9FEF0895D5
:1003F0009091BE028091BD022FEF3FEF981748F415
:10040000E92FF0E0E154FD4F208130E09F5F9093B1
:10041000BE02C9010895CF92DF92EF92FF920F932F
:100420001F93CF93DF937C01CB018A0120910F03AF
:10043000222389F0EB016B01C40ED51ECC15DD051E
:1004400069F06991D701ED91FC910190F081E02D67
:10045000C7011995F3CF642F0E94C101C801DF9134
:10046000CF911F910F91FF90EF90DF90CF90089563
:10047000CF93DF931F92CDB7DEB7698320910F032F
:100480002223F9F020913203203258F021E030E0AD
:10049000FC013383228390E080E00F90DF91CF91C5
:1004A000089580911003E82FF0E0EF5EFC4F9981F2
:1004B00090838F5F809310038093320381E090E0FC
:1004C000ECCF61E0CE0101960E94C101F7CF8150CF
:1004D000823108F05AC0E82FF0E08827ED58FD4F30
:1004E0008F4F0C94D5159302970285028B028F02D1
:1004F000C5029A02A002A402AA02AE02B202B80287
:10050000BC02C502C002C602CA02809180008F7779
:10051000809380000895809180008F7DF9CF809135
:100520008000877FF5CF84B58F7784BD089584B52B
:100530008F7DFBCF8091B0008F778093B0000895BE
:100540008091B0008F7DF9CF809190008F7780935C
:1005500090000895809190008F7DF9CF8091900058
:10056000877FF5CF8091A0008F778093A0000895BA
:100570008091A0008F7DF9CF8091A000877FF5CF7B
:10058000809120018F778093200108958091200130
:100590008F7DF9CF80912001877FF5CF1F93CF9377
:1005A000DF93282F30E0F901E555FD4F8491F901E3
:1005B000EB59FD4FD491F901E15EFD4FC491CC237D
:1005C000A9F0162F81110E946702EC2FF0E0EE0FC8
:1005D000FF1FEB5FFD4FA591B4918FB7F894EC919D
:1005E000111108C0D095DE23DC938FBFDF91CF912E
:1005F0001F910895DE2BF8CF1092090381E08093BC
:1006000008031092E30261E084E10E94CE0261E0FF
:1006100085E10E94CE02E9EBF0E080818E7F80834D
:1006200080818D7F808388E48093B80085E4809307
:10063000BC000895CF93DF9391E0909375028823D7
:10064000B9F0C091B800D091BA008091BC008A7B0B
:100650008093BC0060E084E10E94CE0260E085E10E
:100660000E94CE020E94FC02D093BA00C093B80050
:10067000DF91CF910895CF93DF9390E0FC01EB5988
:10068000FD4F2491815E9D4FFC0184918823C9F028
:1006900090E0880F991FFC01E551FE4FA591B491A0
:1006A000FC01EB5FFD4FC591D49161110DC09FB767
:1006B000F8948C91209582238C9388812823288319
:1006C0009FBFDF91CF910895623051F49FB7F894A6
:1006D0003C91822F809583238C93E8812E2BEFCF42
:1006E0008FB7F894EC912E2B2C938FBFEACF8230EA
:1006F000910538F0880F991F880F991F059701976A
:10070000F1F708959F92AF92BF92CF92DF92EF924E
:10071000FF920F931F93CF93DF93EC016B018885BA
:10072000998511E0892B09F010E8F601A0808A2D47
:100730008123992493948111912C2C813D814E81A8
:100740005F8160E271EA87E090E00E94B315022FBA
:10075000B12CE22EF12C002319F0C7010E9477037F
:100760008A85877F09F04FC08D858F3F89F09A2D4C
:10077000912381E009F480E0891551F0EF85F88933
:100780008F899923D1F19081892B80839924939427
:10079000E989FA898081998D892B8083002319F05A
:1007A000C7010E9477038E858F3F39F0EB89FC8962
:1007B0008081988D892309F0B12AE989FA8990818D
:1007C000898D8095892380838E858F3F11F0F60176
:1007D000B08288859985892B09F044C0110F1111C9
:1007E000BACFDF91CF911F910F91FF90EF90DF90E3
:1007F000CF90BF90AF909F9008959081809589236E
:100800008083912CC5CFE989FA898081998D892BC4
:100810008083002319F0C7010E9477038D858F3FE5
:1008200049F0EF85F8898F899A2D9123B9F090814D
:10083000892B8083E989FA899081898D8095892324
:1008400080838E858F3F09F4BFCFEB89FC8980813F
:10085000988D892309F4B8CFB12AB6CF90818095BD
:100860008923E7CF1695BBCF6F927F928F929F928D
:10087000AF92BF92CF92DF92EF92FF920F931F93AE
:10088000CF93DF931F92CDB7DEB77C01962E872ED4
:100890005A013901DC018D919C911197892B39F016
:1008A0001296ED91FC91908181819CBD8DBDF701E7
:1008B00083858F3F19F060E00E94CE026301060D30
:1008C000171D0C151D05A9F4092D182DA00EB11E1C
:1008D0000A151B0551F1D8018D918D018983F7010E
:1008E00080819181892BD1F0CE0101960E94B501C2
:1008F000EFCFD6018D916D018983F70180819181C0
:10090000892B29F0CE0101960E94B501DACFBE01F4
:100910006F5F7F4FC7010E948203D3CFBE016F5F1D
:100920007F4FC7010E948203D3CFD7011B968C91C2
:100930008F3F19F061E00E94CE0281E00F90DF91BD
:10094000CF911F910F91FF90EF90DF90CF90BF90CC
:10095000AF909F908F907F906F9008953FB7F894DD
:100960008091710290917202A0917302B091740211
:1009700026B5A89B05C02F3F19F00196A11DB11DFA
:100980003FBFBA2FA92F982F8827BC01CD01620F36
:10099000711D811D911D42E0660F771F881F991FF1
:1009A0004A95D1F708958F929F92AF92BF92CF92BE
:1009B000DF92EF92FF920F931F93CF93DF93D0912B
:1009C0003203D13208F0D7C0182FC09131030E94F2
:1009D000AE046B017C018091090381116BC082E040
:1009E00080930903109308038FEF809307031092FD
:1009F0000603D0930503A1E1B3E0E5EEF2E080E069
:100A0000D81391C01092E4028091E402CC0FC82B5D
:100A1000C093E4028091E302813009F088C0109213
:100A2000E3020E94AE046B017C018091E40280939A
:100A3000BB0080910B0390910C03A0910D03B0912A
:100A40000E03892B8A2B8B2BA1F00E94AE04009100
:100A50000B0310910C0320910D0330910E036C19C0
:100A60007D098E099F09061717072807390708F41B
:100A700042C08091BC0083FDD8CF85EC8093BC0040
:100A80000E94AE046B017C0180910903823009F45D
:100A900050C0809107038F3F09F46FC08091070316
:100AA000803209F46CC080910703803309F469C077
:100AB00084E026C080910B0390910C03A0910D035C
:100AC000B0910E03892B8A2B8B2B09F484CF0E94C3
:100AD000AE0480900B0390900C03A0900D03B09097
:100AE0000E036C197D098E099F0986169706A806C4
:100AF000B90608F070CF80910A030E941A0385E0BE
:100B0000109210031092320310920F03DF91CF91D5
:100B10001F910F91FF90EF90DF90CF90BF90AF901B
:100B20009F908F9008959D9191938F5F69CF85EEEF
:100B3000A5CF80910B0390910C03A0910D03B09170
:100B40000E03892B8A2B8B2B09F49ECF0E94AE04B7
:100B500000910B0310910C0320910D0330910E03B3
:100B60006C197D098E099F09061717072807390791
:100B700008F08ACFC0CF81E0C3CF80E0C1CF82E050
:100B8000BFCF83E0BDCFCF93DF93EC018B81882370
:100B9000A1F0888191E090930F038093310310922C
:100BA00010031092320381E00E94D30491E081117E
:100BB00090E0892FDF91CF9108951092BE0210929C
:100BC000BD0210921003109232030E94FC028FEBC0
:100BD00091E09093BA028093B90280EC91E09093F7
:100BE000BC028093BB0281E08B83CE010E94C305CF
:100BF000982F8111CECFDDCFCF93DF93EA0191E023
:100C000090930F03809331031092100310923203DC
:100C100083E393E00E943802688183E393E00E94BB
:100C2000380281E00E94D30491E0811190E0892F85
:100C3000DF91CF910895CF92DF92EF92FF920F93C1
:100C40001F93CF93DF931F921F92CDB7DEB7FC01A6
:100C50004787508B618B728B8285882321F1448773
:100C6000452F562F672F77278823F9F043877F0179
:100C70008BE0E80EF11C9681878199838A83C0807E
:100C8000D180C114D10409F454C0018510E0980149
:100C90002E5F3F4FD60114968D919C91821793073A
:100CA00030F490E02AC04387DBCF4487E0CFF601E1
:100CB00081819281208131E030930F0320933103B1
:100CC00010921003109232030115110511F5D6018F
:100CD00011968D919C91DC01ED91FC910280F38144
:100CE000E02D42E050E0B70119950297D1F681E07E
:100CF0000E94D30491E08111D4CF892F0F900F90DF
:100D0000DF91CF911F910F91FF90EF90DF90CF90E7
:100D10000895DC01ED91FC910280F381E02DA801A2
:100D2000BE016F5F7F4F19950817190709F0B9CFFA
:100D3000CECFA281B381109709F4B3CF248135813E
:100D4000018510E02330310581F48E7F89839A83F9
:100D50000F5F1F4F9E012F5F3F4F42E050E0B701F2
:100D6000CD010E943404982FC8CF2115310519F404
:100D70009F779983EFCF2230310511F49068F9CF36
:100D80002130310539F79F779064F3CF8F929F928E
:100D9000AF92BF92CF92DF92EF92FF920E94AE0489
:100DA0004B015C018CEBC82E82E0D82EE12CF12C9B
:100DB0000E94AE04681979098A099B09683E73404C
:100DC00081059105A8F321E0C21AD108E108F108D4
:100DD00088EE880E83E0981EA11CB11CC114D104BA
:100DE000E104F10429F7FF90EF90DF90CF90BF90DE
:100DF000AF909F908F90089581E080935E02089558
:100E00000895089508950895AF92BF92CF92DF920A
:100E1000EF92FF920F931F93CF93DF936C017B01AF
:100E20008B01040F151FEB015E01AE18BF08C01740
:100E3000D10759F06991D601ED91FC910190F081B3
:100E4000E02DC6011995892B79F7C501DF91CF9166
:100E50001F910F91FF90EF90DF90CF90BF90AF90D8
:100E6000089590E080E00895FC01538D448D252F76
:100E700030E0842F90E0821B930B541710F0CF9634
:100E8000089501970895FC01918D828D981761F066
:100E9000A28DAE0FBF2FB11D5D968C91928D9F5F7D
:100EA0009F73928F90E008958FEF9FEF0895FC015C
:100EB000918D828D981731F0828DE80FF11D858D0F
:100EC00090E008958FEF9FEF0895FC01918D228DA2
:100ED000892F90E0805C9F4F821B91098F73992727
:100EE00008958FE393E00E94650721E0892B09F4C0
:100EF00020E0822F0895FC01A48DA80FB92FB11D09
:100F0000A35ABF4F2C91848D90E001968F7399273F
:100F1000848FA689B7892C93A089B1898C9183701D
:100F200080648C93938D848D981306C00288F38916
:100F3000E02D80818F7D80830895EF92FF920F9343
:100F40001F93CF93DF93EC0181E0888F9B8D8C8D75
:100F500098131AC0E889F989808185FF15C09FB769
:100F6000F894EE89FF896083E889F989808183702C
:100F7000806480839FBF81E090E0DF91CF911F91DB
:100F80000F91FF90EF900895F62E0B8D10E00F5FFC
:100F90001F4F0F731127E02E8C8D8E110CC00FB6D2
:100FA00007FCFACFE889F989808185FFF5CFCE016A
:100FB0000E947B07F1CFEB8DEC0FFD2FF11DE35A63
:100FC000FF4FF0829FB7F8940B8FEA89FB898081ED
:100FD0008062CFCFCF93DF93EC01888D8823B9F067
:100FE000AA89BB89E889F9898C9185FD03C0808134
:100FF00086FD0DC00FB607FCF7CF8C9185FFF2CFB1
:10100000808185FFEDCFCE010E947B07E9CFDF9184
:10101000CF91089581E08093610208950E94710745
:10102000882319F081E08093610280E090E0892BB1
:1010300049F080E090E0892B29F00E9400008111A6
:101040000E94000080E090E0892B49F080E090E071
:10105000892B29F00E94000081110E94000080E08D
:1010600090E0892B49F080E090E0892B29F00E94E4
:10107000000081110C94000008958F929F92AF920E
:10108000BF92CF92DF92EF92FF920F931F93CF9375
:10109000DF93EC016A017B0120E030E04FE753E48D
:1010A000CB01B6010E94F5144B015C0120E030E059
:1010B000A9010E94131618168CF5C501B4010E94EF
:1010C000DD158B01B98020E030E0A901C701B60130
:1010D0000E94131660E018160CF061E08B2D0E9440
:1010E000CE020F3F110509F0ECF41127C88161E031
:1010F0008C2F0E943B0301151105B9F460E08C2F81
:10110000DF91CF911F910F91FF90EF90DF90CF90E3
:10111000BF90AF909F908F900C94CE02C501B40108
:101120009058CDCF0FEF10E0E1CF0F3F110511F434
:1011300061E0E5CFEC2FF0E0E555FD4FE491E150A3
:10114000E23108F0BCC0F0E08827E655F74F8F4F3A
:101150000C94D515BC08CD08D208DC08E6085F0958
:10116000F008F80800090A0914091E092D093709B1
:101170005F0941094B09550984B5806884BD07BDE5
:10118000DF91CF911F910F91FF90EF90DF90CF9063
:10119000BF90AF909F908F90089584B5806284BD7A
:1011A00008BDEECF8091800080688093800010930E
:1011B000890000938800E4CF809180008062809352
:1011C000800010938B0000938A00DACF809180001A
:1011D00088608093800010938D0000938C00D0CFA6
:1011E0008091B00080688093B0000093B300C8CFB6
:1011F0008091B00080628093B0000093B400C0CFB3
:1012000080919000806880939000109399000093E3
:101210009800B6CF809190008062809390001093E8
:101220009B0000939A00ACCF8091900088608093DF
:10123000900010939D0000939C00A2CF8091A0008D
:1012400080688093A0008091A0008F7B8093A00095
:101250001093A9000093A80093CF8091A000806212
:101260008093A0001093AB000093AA0089CF8091D7
:10127000A00088608093A0001093AD000093AC00A4
:101280007FCF8091200180688093200110932901F5
:101290000093280175CF8091200180628093200106
:1012A00010932B0100932A016BCF8091200188605D
:1012B0008093200110932D0100932C0161CF003801
:1012C00011050CF035CF1ACF8EBD00000DB407FE0E
:1012D000FDCF8EB50895CF93DF932091690230E062
:1012E000F901E555FD4F8491F901EB59FD4FD4917A
:1012F000F901E15EFD4FC491CC2321F181110E94DF
:101300006702EC2FF0E0EE0FFF1FE053FE4FA591B8
:10131000B491EC91ED23B1F080916A0290916B024F
:10132000A0916C02B0916D020196A11DB11D809338
:101330006A0290936B02A0936C02B0936D02DF91EE
:10134000CF91089580916A0290916B02A0916C02F6
:10135000B0916D020197A109B109E9CF4F925F9257
:101360006F927F928F929F92AF92BF92EF92FF9275
:101370000F931F93CF93DF93C82F7A0189018FB703
:10138000F8948090DF029090E002A090E102B0908B
:10139000E2028FBFD1E0D0930F03C09331031092CC
:1013A00010031092320383E393E00E94380281E03D
:1013B0000E94D304D0930F031092100310923203B3
:1013C0000E94AE042B013C0180910903811164C08D
:1013D00081E080930903809308039FEF90930703B4
:1013E00010920603109205038093E4028091E402B8
:1013F000CC0FC82BC093E4028091E302813009F046
:101400008FC01092E3020E94AE042B013C01809138
:10141000E4028093BB0080910B0390910C03A09198
:101420000D03B0910E03892B8A2B8B2BA1F00E9408
:10143000AE0420910B0330910C0340910D035091A9
:101440000E03641975098609970926173707480797
:10145000590708F442C08091BC0083FDD8CF85ECC9
:101460008093BC000E94AE042B013C0180910903D3
:10147000813009F457C080910603811175C08091B5
:101480000603E5EEF2E0AFEBB2E090E0981751F121
:1014900021912D939F5FFACF80910B0390910C03C4
:1014A000A0910D03B0910E03892B8A2B8B2B09F48D
:1014B0008BCF0E94AE0420910B0330910C0340911E
:1014C0000D0350910E0364197509860997092617B3
:1014D00037074807590708F077CF80910A030E9421
:1014E0001A0380E01092BE028093BD02C0E0280182
:1014F000712C612C9091BD028091BE02981709F465
:101500004AC00115110591F583E393E00E94F801AB
:10151000F701EC0FF11DC7FDFA958083CF5FEACF8D
:1015200085EE9ECF80910B0390910C03A0910D034B
:10153000B0910E03892B8A2B8B2B09F497CF0E9435
:10154000AE0420910B0330910C0340910D03509198
:101550000E03641975098609970926173707480786
:10156000590708F083CFB9CF81E08BCF2FB7F8941C
:101570008091DF029091E002A091E102B091E2023D
:101580002FBF88199909AA09BB0984159505A605D5
:10159000B70508F4B9CF81E00E94D3040115110505
:1015A000C9F08FB7F8944091DF025091E00260914A
:1015B000E1027091E2028FBF481959096A097B095B
:1015C00030E020E0401751076207730718F01C163F
:1015D0000CF0CFEF8C2FDF91CF911F910F91FF90E7
:1015E000EF90BF90AF909F908F907F906F905F90A3
:1015F0004F900895DF92EF92FF920F931F93CF9336
:10160000DF931F921F92CDB7DEB7F82EE62E142F70
:10161000D22E28EE33E0AE014E5F5F4F0E94AE093E
:10162000882381F1812F8D19990BAC014F5F5F4F9A
:1016300081E090E002C0880F991FDA94E2F70197E9
:10164000042E01C0880F0A94EAF701C0000F4A95E2
:10165000EAF7982F90952A8192238023892B8A83F9
:101660008983AE014F5F5F4F6E2D8F2D0E94FC0569
:101670000F900F90DF91CF911F910F91FF90EF90FE
:10168000DF90089580E0F4CF40E050E0BA0185EAB1
:1016900094E00E943D0840E050E060E070E887EA96
:1016A00094E00E943D081092230410925F02089576
:1016B00085ED8093BC0080910B0390910C03A09169
:1016C0000D03B0910E030796A11DB11D23E0B69541
:1016D000A795979587952A95D1F72091BC0024FD71
:1016E00003C010920903089540910B0350910C031D
:1016F00060910D0370910E03452B462B472B69F328
:101700000097A105B10541F025E32A95F1F7000006
:101710000197A109B109E1CF80910A030C941A0342
:101720001F920F920FB60F9211240BB60F922F93A8
:101730003F934F935F936F937F938F939F93AF9359
:10174000BF93EF93FF938091B900887F803609F4AF
:101750004DC008F040C0883209F4A9C028F5803196
:1017600009F49DC0C8F4882309F4FBC0883009F44B
:1017700096C0FF91EF91BF91AF919F918F917F9113
:101780006F915F914F913F912F910F900BBE0F90F2
:101790000FBE0F901F901895883109F488C08032D1
:1017A00041F78093070314C0803409F49DC040F4CE
:1017B0008033B9F38833E9F68093070385ECB0C032
:1017C000803509F485C0883509F496C0883489F6D7
:1017D0000E94580BCECF883909F48CC038F5883771
:1017E00029F050F4883611F0803719F683E08093A1
:1017F00009031092B80257C0883809F47BC08039B9
:1018000019F0803809F0B5CF8091B802803208F025
:1018100071C0E091B80281E08E0F8093B802809190
:10182000BB00F0E0E856FD4F80833DC0803B39F0BF
:10183000E0F4803A09F479C0883A09F09ACF84E05C
:10184000809309031092970210929602E091B902D8
:10185000F091BA0219958091960281110FC081E032
:10186000809396021092760209C0803C09F4A6CFBC
:10187000883C09F4A3CF883B09F07BCFE091970225
:1018800081E08E0F80939702F0E0EA58FD4F80814F
:101890008093BB00909197028091960229C080911D
:1018A000E4028093BB0085EC8093BC0062CF9091F2
:1018B000060380910503981758F5E091060381E02F
:1018C0008E0F80930603F0E0EB51FD4F8081E9CF4E
:1018D000E091060381E08E0F809306038091BB00A8
:1018E000F0E0EB51FD4F808390910603809105035A
:1018F0009817C8F285E8D8CFE091060381E08E0FF3
:10190000809306038091BB00F0E0EB51FD4F808394
:101910008091080381115CCF81E08093E30284EA27
:101920008093BC001092090324CF85EC8093BC0007
:10193000109209038091B802803230F4E091B8022D
:10194000F0E0E856FD4F10826091B80270E0E0913F
:10195000BB02F091BC0288E992E019951092B8029E
:1019600008CF1092070334CF1F920F920FB60F9239
:1019700011242F933F938F939F93AF93BF938091A5
:10198000DF029091E002A091E102B091E202309179
:10199000700223E0230F2D3758F50196A11DB11DCC
:1019A000209370028093DF029093E002A093E10203
:1019B000B093E2028091710290917202A091730241
:1019C000B09174020196A11DB11D80937102909394
:1019D0007202A0937302B0937402BF91AF919F9172
:1019E0008F913F912F910F900FBE0F901F901895E0
:1019F00026E8230F0296A11DB11DD2CF1F920F9290
:101A00000FB60F9211240BB60F922F933F934F9363
:101A10005F936F937F938F939F93AF93BF93EF9356
:101A2000FF93E0910F02F09110021995FF91EF9151
:101A3000BF91AF919F918F917F916F915F914F91E6
:101A40003F912F910F900BBE0F900FBE0F901F90E4
:101A500018951F920F920FB60F9211240BB60F928A
:101A60002F933F934F935F936F937F938F939F93A6
:101A7000AF93BF93EF93FF93E0910D02F0910E02AD
:101A80001995FF91EF91BF91AF919F918F917F91A8
:101A90006F915F914F913F912F910F900BBE0F90DF
:101AA0000FBE0F901F9018951F920F920FB60F92B6
:101AB00011240BB60F922F933F934F935F936F9325
:101AC0007F938F939F93AF93BF93EF93FF93E09197
:101AD0000302F09104021995FF91EF91BF91AF912C
:101AE0009F918F917F916F915F914F913F912F9136
:101AF0000F900BBE0F900FBE0F901F9018951F9266
:101B00000F920FB60F9211240BB60F922F933F93A3
:101B10004F935F936F937F938F939F93AF93BF93F5
:101B2000EF93FF93E0910102F09102021995FF916A
:101B3000EF91BF91AF919F918F917F916F915F9145
:101B40004F913F912F910F900BBE0F900FBE0F90B2
:101B50001F9018951F920F920FB60F9211240BB67B
:101B60000F922F933F934F935F936F937F938F9336
:101B70009F93AF93BF93EF93FF93E0910B02F0918C
:101B80000C021995FF91EF91BF91AF919F918F91A9
:101B90007F916F915F914F913F912F910F900BBE6D
:101BA0000F900FBE0F901F9018951F920F920FB6B7
:101BB0000F9211240BB60F922F933F934F935F9385
:101BC0006F937F938F939F93AF93BF93EF93FF9305
:101BD000E0910902F0910A021995FF91EF91BF91EE
:101BE000AF919F918F917F916F915F914F913F91B5
:101BF0002F910F900BBE0F900FBE0F901F90189556
:101C00001F920F920FB60F9211240BB60F922F93C3
:101C10003F934F935F936F937F938F939F93AF9374
:101C2000BF93EF93FF93E0910702F091080219959B
:101C3000FF91EF91BF91AF919F918F917F916F91A4
:101C40005F914F913F912F910F900BBE0F900FBE60
:101C50000F901F9018951F920F920FB60F9211249C
:101C60000BB60F922F933F934F935F936F937F9396
:101C70008F939F93AF93BF93EF93FF93E0910502F0
:101C8000F09106021995FF91EF91BF91AF919F914D
:101C90008F917F916F915F914F913F912F910F9015
:101CA0000BBE0F900FBE0F901F9018951F920F92B2
:101CB0000FB60F9211240BB60F922F933F934F93B1
:101CC0005F936F937F938F939F93AF93BF93EF93A4
:101CD000FF938091630290916402A0916502B0919C
:101CE0006602892B8A2B8B2BD1F190916202809115
:101CF0000000892780930000809163029091640224
:101D0000A0916502B0916602181619061A061B0604
:101D10009CF48091630290916402A0916502B0915D
:101D200066020197A109B10980936302909364024E
:101D3000A0936502B0936602FF91EF91BF91AF91BE
:101D40009F918F917F916F915F914F913F912F91D3
:101D50000F900BBE0F900FBE0F901F9018958091A3
:101D60000002EAEEF1E0E4919FEF90930002E2308E
:101D7000E9F040F4EE2389F0E13091F060E00E9458
:101D8000CE02DACFE43049F110F1E530B9F79091A5
:101D900073009D7F90937300F1CF10926E00EECF91
:101DA00090916F009D7F90936F00E8CF90917000AD
:101DB0009D7F9093700091E09093B0009091B1005E
:101DC000987F94609093B1001092B300D7CF909118
:101DD00071009D7F90937100D1CF909172009D7F93
:101DE00090937200CBCF1F920F920FB60F921124D7
:101DF0000BB60F922F933F934F935F936F937F9305
:101E00008F939F93AF93BF93EF93FF938FE393E0F1
:101E10000E947B07FF91EF91BF91AF919F918F91AE
:101E20007F916F915F914F913F912F910F900BBEDA
:101E30000F900FBE0F901F9018951F920F920FB624
:101E40000F9211240BB60F922F938F939F93EF93C2
:101E5000FF93E0914F03F09150038081E09155038F
:101E6000F091560382FD1DC09081809158038F5FD1
:101E70008F7320915903821741F0E0915803F0E0ED
:101E8000E15CFC4F958F80935803FF91EF919F91F8
:101E90008F912F910F900BBE0F900FBE0F901F9040
:101EA00018958081F2CF1F920F920FB60F921124D6
:101EB0000BB60F922F933F934F935F936F937F9344
:101EC0008F939F93AF93BF93CF93DF93EF93FF9342
:101ED00080916002C0911804D0E087FF23C0109267
:101EE000850010928400809160028F5F8093600271
:101EF00080916002082E000C990B8C179D0724F42A
:101F0000809160028C3074F1809184009091850002
:101F100084349C4908F465C08091840090918500C8
:101F2000049661C080916002082E000C990B8C17FA
:101F30009D07CCF63091600225E03203F0011124B8
:101F4000E452FC4F808186FFCECF30916002320395
:101F5000F0011124E452FC4F808160E08F730E94F5
:101F6000CE02C1CF809184009091850030916002B3
:101F700025E03203F0011124E452FC4F41815281EB
:101F8000840F951F909389008093880030916002A0
:101F90003203F0011124E452FC4F808186FF0CC013
:101FA000309160023203F0011124E452FC4F808131
:101FB00061E08F730E94CE02FF91EF91DF91CF918C
:101FC000BF91AF919F918F917F916F915F914F9151
:101FD0003F912F910F900BBE0F900FBE0F901F904F
:101FE000189580E49CE990938900809388008FEF96
:101FF00080936002E1CF109236031092350388EE91
:1020000093E0A0E0B0E08093370390933803A0936F
:102010003903B0933A0323E232E030933403209340
:102020003303109242031092410380934303909331
:102030004403A0934503B093460385E392E0909355
:10204000400380933F0385EC90E090934C03809392
:102050004B0384EC90E090934E0380934D0380EC0F
:1020600090E09093500380934F0381EC90E0909325
:1020700052038093510382EC90E090935403809339
:10208000530386EC90E0909356038093550310928F
:1020900058031092590310925A0310925B038CE07C
:1020A00080938B0484E280938C0485E080938D047C
:1020B00096E090938E049EE190938F049FE190931D
:1020C000900492E29093910493E29093920494E4AA
:1020D0009093930495E49093940410929604109234
:1020E000950490E49093980410929D0410929E049D
:1020F00010929F041092A0041092A1041092A204C6
:102100001092A3041092A40498E0E7E1F2E0ADEA93
:10211000B4E001900D929A95E1F740E050E060EA5A
:1021200070E44093B5045093B6046093B704709381
:10213000B804E0911804EC3008F0CAC091E09E0F9A
:1021400090931804E0938A048E9FF0011124E452C6
:10215000FC4F88EB9BE09283818388E680937B042D
:1021600010923F04109240041092410410924204D5
:1021700010924304109244041092450410924604B5
:1021800010924704109248041092490410924A0495
:1021900010924C0410924B0410924E0410924D0475
:1021A0001092500410924F04109251041092520455
:1021B0001092530410925404109255041092560435
:1021C00010926304109264041092650410926604E5
:1021D00010926704109268041092690410926A04C5
:1021E00080E090E0A0EAB0E480936B0490936C04EC
:1021F000A0936D04B0936E0480E090E0A8ECB2E48C
:1022000080936F0490937004A0937104B093720450
:102210001092730410927404109275041092760454
:1022200010927704109278041092790410927A0434
:1022300010922E0410922F04109230041092310448
:102240001092320410923304109234041092350428
:102250008FEF9FEFDC018093370490933804A093B5
:102260003904B0933A0480933B0490933C04A093C8
:102270003D04B0933E041092360410922D04109247
:102280002C0410921B0410921C0410921D04109236
:102290001E0410921F041092200410922104109228
:1022A00022048093240490932504A0932604B093E1
:1022B00027048093280490932904A0932A04B093C0
:1022C0002B041092230410921A04109219040895FA
:1022D0008FEF80938A0441CFCF93DF93CDB7DEB7E2
:1022E000A6970FB6F894DEBF0FBECDBF789484B525
:1022F000826084BD84B5816084BD85B5826085BD02
:1023000085B5816085BD80916E00816080936E008F
:102310001092810080918100826080938100809181
:102320008100816080938100809180008160809332
:1023300080008091B10084608093B1008091B000F2
:1023400081608093B00080919100826080939100C1
:1023500080919100816080939100809190008160D4
:10236000809390008091A10082608093A100809171
:10237000A10081608093A1008091A0008160809382
:10238000A000809121018260809321018091210130
:1023900081608093210180912001816080932001E0
:1023A00080917A00846080937A0080917A008260C4
:1023B00080937A0080917A00816080937A00809186
:1023C0007A00806880937A001092C100E0914F03F8
:1023D000F091500382E08083E0914B03F0914C0335
:1023E0001082E0914D03F0914E0380E180831092C2
:1023F0005703E0915303F091540386E08083E0910A
:102400005103F0915203808180618083E0915103F8
:10241000F0915203808188608083E0915103F091B4
:102420005203808180688083E0915103F0915203D0
:1024300080818F7D808361E080918C040E943B03CA
:1024400060E080918C040E94CE0260E080918B0459
:102450000E943B038091950490919604892BA9F4E6
:1024600086E090E00E941816FC0180919804808319
:1024700083E393E092838183138280E290E09583EB
:102480008483F0939604E0939504E0909504F09093
:1024900096041092BE021092BD0210921003109288
:1024A00032030E94FC028FEB91E09093BA0280937A
:1024B000B90280EC91E09093BC028093BB0211E0E2
:1024C000F7011383C7010E94C305882309F45BC089
:1024D00080E090E1A0E0B0E08093990490939A04AA
:1024E000A0939B04B0939C048AE090E0A0E0B0E04D
:1024F00080939D0490939E04A0939F04B093A004A6
:1025000080E090E0A0E0B0E48093A1049093A20466
:10251000A093A304B093A404809195049091960491
:102520001BA21CA21DA21EA29D8B8C8B1F8A1E8A21
:102530001D8F85E090E09B8F8A8F1E8F02E00C8FAD
:1025400040E050E160E070E0CE0144960E941B063E
:102550008091950490919604188A198A1A8A1B8A88
:102560009A8389831C821B821A8718861F821B8785
:1025700009874FE959E360E070E0CE0101960E94BF
:102580001B06809397043DE8E32E34E0F32E0BE81E
:1025900014E044E5642E42E0742E5AE9852E52E0A0
:1025A000952E6BECC62E67E0D62E7BE8A72EBB24BB
:1025B000B394F701928181917F01F801828F938F0B
:1025C00061E00E943B0361E0F801838D0E943B03C0
:1025D000F70195818381F801868F978F61E00E94D2
:1025E0003B0360E0F801878D0E943B0361E0F80146
:1025F000868D0E94CE025FB6F894809167028111A9
:1026000025C0F3018491F4019491E82FF0E0EE0FDE
:10261000FF1FE551FE4FA591B4918C91982321F4B1
:1026200061E085E30E94CE0261E085E30E943B0306
:102630008CB580618CBD8CB580648CBD61E084E319
:102640000E943B0361E083E30E943B0380916702A9
:102650008F5F809367025FBEC6010197F1F760E06C
:10266000F801868D0E94CE0288E80E94640983E00A
:102670000E94640961E0F801868D0E94CE02C601C5
:102680000197F1F760E0F801868D0E94CE0288E99B
:102690000E94640980E00E94640980E00E9464094D
:1026A00080E00E94640980E00E94640961E0F80112
:1026B000868D0E94CE02C5010197F1F760E0F80116
:1026C000868D0E94CE0280EE0E94640961E0F801CE
:1026D000868D0E94CE020E5F1F4FF4E00F381F0759
:1026E00009F067CF01E023E042E06BE680917B04D4
:1026F0000E94FA0A00E022E044E06BE180917B0452
:102700000E94FA0A22E044E06CE180917B040E947E
:10271000FA0A10917B0428EE33E0AE014C5E5F4F65
:102720006BE6812F0E94AE098C898F7B8C8B89830D
:10273000AE014F5F5F4F6BE6812F0E94FC0582E088
:102740008093680283E08093690262E082E00E94E5
:102750003B0362E0809169020E943B039091680212
:10276000923009F0D1C08BE699E0909302028093F9
:10277000010280916A008C7F826080936A00EC9AEB
:1027800084E690E0A0E0B0E080932E0490932F04C4
:10279000A0933004B09331048CEF96E090932D0415
:1027A00080932C0481E0809336048FB7F894409195
:1027B000DF025091E0026091E1027091E2028FBF6E
:1027C00080912E0490912F04A0913004B091310497
:1027D000840F951FA61FB71F809332049093330474
:1027E000A0933404B0933504809137049091380459
:1027F000A0913904B0913A0480933B0490933C0437
:10280000A0933D04B0933E0484E49BE090931A04AB
:102810008093190480E090E0A0E8BEE380933F0439
:1028200090934004A0934104B09342048DEC9CEC3F
:10283000ACECBDE38093430490934404A09345041F
:10284000B093460410924704109248041092490431
:1028500010924A0480E097E090934C0480934B04DC
:1028600081E097E090934E0480934D0482E097E0DE
:102870009093500480934F048FE692E1A3E8BAE36B
:1028800080936B0490936C04A0936D04B0936E04DA
:1028900088EC90E0A0E0B0E080935B0490935C044F
:1028A000A0935D04B0935E048DEC9CECACE4BEE3BD
:1028B0008093570490935804A0935904B0935A04FA
:1028C00085E080936E028EE180936F0261E085E087
:1028D0000E943B0361E080916F020E943B0340E055
:1028E00050E060E87FE38EE692E00E943D080E949F
:1028F000C60640E050E060E87FEB8EE692E00E9482
:102900003D080E94C606EBCF933071F48BE699E048
:10291000909304028093030280916A00837F886011
:1029200080936A00ED9A2CCF8EEE890F843008F0E8
:1029300027CF87E1891BE82FF0E0EE0FFF1FEF5F45
:10294000FD4F2BE639E0318320838430A1F08530C0
:10295000D1F0833041F0809169008C7F8260809358
:102960006900E89A0DCF80916900837F8860809329
:102970006900E99A05CF809169008F7C806280931D
:102980006900EA9AFDCE809169008F738068809318
:102990006900EB9AF5CE80919504909196040C9481
:1029A000B416990F0008550FAA0BE0E8FEEF1616B3
:1029B0001706E807F907C0F012161306E407F50733
:1029C00098F0621B730B840B950B39F40A2661F0A7
:1029D000232B242B252B21F408950A2609F4A1404A
:1029E000A6958FEF811D811D08950E9408150C94F6
:1029F00079150E946B1538F00E94721520F095230E
:102A000011F00C9462150C94681511240C94AD15FA
:102A10000E948A1570F3959FC1F3950F50E0551FE2
:102A2000629FF001729FBB27F00DB11D639FAA2723
:102A3000F00DB11DAA1F649F6627B00DA11D661F72
:102A4000829F2227B00DA11D621F739FB00DA11D93
:102A5000621F839FA00D611D221F749F3327A00D4D
:102A6000611D231F849F600D211D822F762F6A2FE9
:102A700011249F5750409AF0F1F088234AF0EE0F4E
:102A8000FF1FBB1F661F771F881F91505040A9F77B
:102A90009E3F510580F00C9462150C94AD155F3F7C
:102AA000E4F3983ED4F3869577956795B795F795B7
:102AB000E7959F5FC1F7FE2B880F911D969587952F
:102AC00097F9089597F99F6780E870E060E00895AE
:102AD0009FEF80EC089500240A9416161706180636
:102AE0000906089500240A94121613061406050612
:102AF0000895092E0394000C11F4882352F0BB0FA3
:102B000040F4BF2B11F460FF04C06F5F7F4F8F4F05
:102B10009F4F089557FD9058440F551F59F05F3F40
:102B200071F04795880F97FB991F61F09F3F79F0EF
:102B300087950895121613061406551FF2CF469571
:102B4000F1DF08C0161617061806991FF1CF8695F3
:102B50007105610508940895E894BB2766277727D7
:102B6000CB0197F90895A1E21A2EAA1BBB1BFD0108
:102B70000DC0AA1FBB1FEE1FFF1FA217B307E4075C
:102B8000F50720F0A21BB30BE40BF50B661F771FB4
:102B9000881F991F1A9469F7609570958095909594
:102BA0009B01AC01BD01CF010895EE0FFF1F881FEF
:102BB0008BBF0790F691E02D19940E94E41568945C
:102BC000B1110C94AD1508950E94921588F09F578D
:102BD00098F0B92F9927B751B0F0E1F0660F771F41
:102BE000881F991F1AF0BA95C9F714C0B13091F037
:102BF0000E94AC15B1E008950C94AC15672F782FA6
:102C00008827B85F39F0B93FCCF3869577956795FB
:102C1000B395D9F73EF490958095709561957F4F67
:102C20008F4F9F4F08950E94D11408F48FEF08959D
:102C30000F931F93CF93DF938230910510F482E0BE
:102C400090E0E091BB04F091BC0430E020E0B0E003
:102C5000A0E0309799F42115310509F44AC0281BEA
:102C6000390B24303105D8F58A819B8161157105B6
:102C700089F1FB0193838283FE0111C04081518160
:102C80000281138148175907E0F04817590799F452
:102C9000109761F012960C93129713961C9332962C
:102CA000CF01DF91CF911F910F9108950093BB0445
:102CB0001093BC04F4CF2115310551F0421753078E
:102CC00038F0A901DB019A01BD01DF01F801C1CF94
:102CD000EF01F9CF9093BC048093BB04CDCFFE01EC
:102CE000E20FF31F81939193225031093983288396
:102CF000D7CF2091B9043091BA04232B41F420910D
:102D00001302309114023093BA042093B904209135
:102D10001102309112022115310541F42DB73EB751
:102D20004091150250911602241B350BE091B90415
:102D3000F091BA04E217F307A0F42E1B3F0B2817FB
:102D4000390778F0AC014E5F5F4F2417350748F024
:102D50004E0F5F1F5093BA044093B904819391932F
:102D60009FCFF0E0E0E09CCFCF93DF930097E9F0B6
:102D7000FC01329713821282A091BB04B091BC0473
:102D8000ED0130E020E01097A1F420813181820F25
:102D9000931F2091B9043091BA042817390709F01C
:102DA00061C0F093BA04E093B904DF91CF91089524
:102DB000EA01CE17DF07E8F54A815B819E014115E4
:102DC0005105B1F7E901FB83EA8349915991C40F99
:102DD000D51FEC17FD0761F4808191810296840F65
:102DE000951FE90199838883828193819B838A83DC
:102DF000F0E0E0E012968D919C9113970097B9F561
:102E00002D913C911197CD010296820F931F209135
:102E1000B9043091BA042817390739F6309751F5BB
:102E20001092BC041092BB04B093BA04A093B904EE
:102E3000BCCFD383C28340815181840F951FC817B3
:102E4000D90761F44E5F5F4F88819981480F591F00
:102E5000518340838A819B8193838283211531052D
:102E600009F0B0CFF093BC04E093BB049ECFFD010A
:102E7000DC01C0CF13821282D7CF11E0CAE7D1E0C4
:102E800000E006C0802FFE010E94D5152196011D8D
:0E2E9000CB37D10780E00807A9F7F894FFCFF1
:102E9E00FF030703070307030703070307030703DC
:102EAE00070000BD04800030003100320033000006
:102EBE0000000038020B023107E801AE01F801E90B
:102ECE0001000000009D0704073407EA0765074369
:042EDE00075707008B
:00000001FF
